{
  "_format": "hh-sol-artifact-1",
  "contractName": "WavePortal",
  "sourceName": "contracts/WavePortal.sol",
  "abi": [
    {
      "inputs": [],
      "stateMutability": "payable",
      "type": "constructor"
    },
    {
      "anonymous": false,
      "inputs": [
        {
          "indexed": true,
          "internalType": "address",
          "name": "from",
          "type": "address"
        },
        {
          "indexed": false,
          "internalType": "uint256",
          "name": "timestamp",
          "type": "uint256"
        },
        {
          "indexed": false,
          "internalType": "string",
          "name": "message",
          "type": "string"
        }
      ],
      "name": "NewWave",
      "type": "event"
    },
    {
      "inputs": [],
      "name": "getAllWaves",
      "outputs": [
        {
          "components": [
            {
              "internalType": "address",
              "name": "waver",
              "type": "address"
            },
            {
              "internalType": "string",
              "name": "message",
              "type": "string"
            },
            {
              "internalType": "uint256",
              "name": "timestamp",
              "type": "uint256"
            }
          ],
          "internalType": "struct WavePortal.Wave[]",
          "name": "",
          "type": "tuple[]"
        }
      ],
      "stateMutability": "view",
      "type": "function"
    },
    {
      "inputs": [],
      "name": "getTotalWaves",
      "outputs": [
        {
          "internalType": "uint256",
          "name": "",
          "type": "uint256"
        }
      ],
      "stateMutability": "view",
      "type": "function"
    },
    {
      "inputs": [],
      "name": "getWaves",
      "outputs": [
        {
          "internalType": "uint256",
          "name": "",
          "type": "uint256"
        }
      ],
      "stateMutability": "view",
      "type": "function"
    },
    {
      "inputs": [
        {
          "internalType": "string",
          "name": "_message",
          "type": "string"
        }
      ],
      "name": "wave",
      "outputs": [],
      "stateMutability": "nonpayable",
      "type": "function"
    }
  ],
  "bytecode": "0x60806040526200004f6040518060400160405280601e81526020017f536d61727420436f6e747261637420666f72205761766520506f7274616c00008152506200005560201b620005f41760201c565b620001e9565b620000f5816040516024016200006c919062000162565b6040516020818303038152906040527f41304fac000000000000000000000000000000000000000000000000000000007bffffffffffffffffffffffffffffffffffffffffffffffffffffffff19166020820180517bffffffffffffffffffffffffffffffffffffffffffffffffffffffff8381831617835250505050620000f860201b60201c565b50565b60008151905060006a636f6e736f6c652e6c6f679050602083016000808483855afa5050505050565b60006200012e8262000186565b6200013a818562000191565b93506200014c818560208601620001a2565b6200015781620001d8565b840191505092915050565b600060208201905081810360008301526200017e818462000121565b905092915050565b600081519050919050565b600082825260208201905092915050565b60005b83811015620001c2578082015181840152602081019050620001a5565b83811115620001d2576000848401525b50505050565b6000601f19601f8301169050919050565b6110ed80620001f96000396000f3fe608060405234801561001057600080fd5b506004361061004c5760003560e01c8063449d46c0146100515780639a2cdc081461006d578063a9d42f7e1461008b578063bd43a908146100a9575b600080fd5b61006b6004803603810190610066919061099e565b6100c7565b005b610075610396565b6040516100829190610dad565b60405180910390f35b6100936103e1565b6040516100a09190610dad565b60405180910390f35b6100b16104a3565b6040516100be9190610cb4565b60405180910390f35b60016000808282546100d99190610eca565b925050819055506000339050600160008273ffffffffffffffffffffffffffffffffffffffff1673ffffffffffffffffffffffffffffffffffffffff168152602001908152602001600020600081548092919061013590610fd0565b919050555061017a6040518060400160405280601c81526020017f2573206861732077617665642077697468206d65737361676520257300000000815250828461068d565b600260405180606001604052808373ffffffffffffffffffffffffffffffffffffffff16815260200184815260200142815250908060018154018082558091505060019003906000526020600020906003020160009091909190915060008201518160000160006101000a81548173ffffffffffffffffffffffffffffffffffffffff021916908373ffffffffffffffffffffffffffffffffffffffff1602179055506020820151816001019080519060200190610239929190610893565b506040820151816002015550508073ffffffffffffffffffffffffffffffffffffffff167f5f7e16dc676677766a70e9c5628aa6c54ddb8b6e5188e2ae1e1f17f1ffbea716428460405161028e929190610dc8565b60405180910390a26000655af3107a40009050478111156102e4576040517f08c379a00000000000000000000000000000000000000000000000000000000081526004016102db90610d6d565b60405180910390fd5b60003373ffffffffffffffffffffffffffffffffffffffff168260405161030a90610c4c565b60006040518083038185875af1925050503d8060008114610347576040519150601f19603f3d011682016040523d82523d6000602084013e61034c565b606091505b5050905080610390576040517f08c379a000000000000000000000000000000000000000000000000000000000815260040161038790610d8d565b60405180910390fd5b50505050565b60006103d96040518060400160405280601781526020017f5765206861766520256420746f74616c2077617665732100000000000000000081525060005461072c565b600054905090565b600080600160003373ffffffffffffffffffffffffffffffffffffffff1673ffffffffffffffffffffffffffffffffffffffff16815260200190815260200160002054905061049c336040518060400160405280600a81526020017f206861732073656e742000000000000000000000000000000000000000000000815250836040518060400160405280600781526020017f20776176657321000000000000000000000000000000000000000000000000008152506107c8565b8091505090565b60606002805480602002602001604051908101604052809291908181526020016000905b828210156105eb57838290600052602060002090600302016040518060600160405290816000820160009054906101000a900473ffffffffffffffffffffffffffffffffffffffff1673ffffffffffffffffffffffffffffffffffffffff1673ffffffffffffffffffffffffffffffffffffffff16815260200160018201805461055090610f9e565b80601f016020809104026020016040519081016040528092919081815260200182805461057c90610f9e565b80156105c95780601f1061059e576101008083540402835291602001916105c9565b820191906000526020600020905b8154815290600101906020018083116105ac57829003601f168201915b50505050508152602001600282015481525050815260200190600101906104c7565b50505050905090565b61068a816040516024016106089190610cd6565b6040516020818303038152906040527f41304fac000000000000000000000000000000000000000000000000000000007bffffffffffffffffffffffffffffffffffffffffffffffffffffffff19166020820180517bffffffffffffffffffffffffffffffffffffffffffffffffffffffff838183161783525050505061086a565b50565b6107278383836040516024016106a593929190610cf8565b6040516020818303038152906040527fe0e9ad4f000000000000000000000000000000000000000000000000000000007bffffffffffffffffffffffffffffffffffffffffffffffffffffffff19166020820180517bffffffffffffffffffffffffffffffffffffffffffffffffffffffff838183161783525050505061086a565b505050565b6107c48282604051602401610742929190610d3d565b6040516020818303038152906040527f9710a9d0000000000000000000000000000000000000000000000000000000007bffffffffffffffffffffffffffffffffffffffffffffffffffffffff19166020820180517bffffffffffffffffffffffffffffffffffffffffffffffffffffffff838183161783525050505061086a565b5050565b610864848484846040516024016107e29493929190610c61565b6040516020818303038152906040527f5d1365c9000000000000000000000000000000000000000000000000000000007bffffffffffffffffffffffffffffffffffffffffffffffffffffffff19166020820180517bffffffffffffffffffffffffffffffffffffffffffffffffffffffff838183161783525050505061086a565b50505050565b60008151905060006a636f6e736f6c652e6c6f679050602083016000808483855afa5050505050565b82805461089f90610f9e565b90600052602060002090601f0160209004810192826108c15760008555610908565b82601f106108da57805160ff1916838001178555610908565b82800160010185558215610908579182015b828111156109075782518255916020019190600101906108ec565b5b5090506109159190610919565b5090565b5b8082111561093257600081600090555060010161091a565b5090565b600061094961094484610e29565b610df8565b90508281526020810184848401111561096157600080fd5b61096c848285610f5c565b509392505050565b600082601f83011261098557600080fd5b8135610995848260208601610936565b91505092915050565b6000602082840312156109b057600080fd5b600082013567ffffffffffffffff8111156109ca57600080fd5b6109d684828501610974565b91505092915050565b60006109eb8383610bde565b905092915050565b6109fc81610f20565b82525050565b610a0b81610f20565b82525050565b6000610a1c82610e69565b610a268185610e8c565b935083602082028501610a3885610e59565b8060005b85811015610a745784840389528151610a5585826109df565b9450610a6083610e7f565b925060208a01995050600181019050610a3c565b50829750879550505050505092915050565b6000610a9182610e74565b610a9b8185610ea8565b9350610aab818560208601610f6b565b610ab4816110a6565b840191505092915050565b6000610aca82610e74565b610ad48185610eb9565b9350610ae4818560208601610f6b565b610aed816110a6565b840191505092915050565b6000610b05603483610eb9565b91507f547279696e6720746f207769746864726177206d6f7265206d6f6e657920746860008301527f616e2074686520636f6e7472616374206861732e0000000000000000000000006020830152604082019050919050565b6000610b6b602783610eb9565b91507f4661696c656420746f207769746864726177206d6f6e65792066726f6d20636f60008301527f6e74726163742e000000000000000000000000000000000000000000000000006020830152604082019050919050565b6000610bd1600083610e9d565b9150600082019050919050565b6000606083016000830151610bf660008601826109f3565b5060208301518482036020860152610c0e8282610a86565b9150506040830151610c236040860182610c2e565b508091505092915050565b610c3781610f52565b82525050565b610c4681610f52565b82525050565b6000610c5782610bc4565b9150819050919050565b6000608082019050610c766000830187610a02565b8181036020830152610c888186610abf565b9050610c976040830185610c3d565b8181036060830152610ca98184610abf565b905095945050505050565b60006020820190508181036000830152610cce8184610a11565b905092915050565b60006020820190508181036000830152610cf08184610abf565b905092915050565b60006060820190508181036000830152610d128186610abf565b9050610d216020830185610a02565b8181036040830152610d338184610abf565b9050949350505050565b60006040820190508181036000830152610d578185610abf565b9050610d666020830184610c3d565b9392505050565b60006020820190508181036000830152610d8681610af8565b9050919050565b60006020820190508181036000830152610da681610b5e565b9050919050565b6000602082019050610dc26000830184610c3d565b92915050565b6000604082019050610ddd6000830185610c3d565b8181036020830152610def8184610abf565b90509392505050565b6000604051905081810181811067ffffffffffffffff82111715610e1f57610e1e611077565b5b8060405250919050565b600067ffffffffffffffff821115610e4457610e43611077565b5b601f19601f8301169050602081019050919050565b6000819050602082019050919050565b600081519050919050565b600081519050919050565b6000602082019050919050565b600082825260208201905092915050565b600081905092915050565b600082825260208201905092915050565b600082825260208201905092915050565b6000610ed582610f52565b9150610ee083610f52565b9250827fffffffffffffffffffffffffffffffffffffffffffffffffffffffffffffffff03821115610f1557610f14611019565b5b828201905092915050565b6000610f2b82610f32565b9050919050565b600073ffffffffffffffffffffffffffffffffffffffff82169050919050565b6000819050919050565b82818337600083830152505050565b60005b83811015610f89578082015181840152602081019050610f6e565b83811115610f98576000848401525b50505050565b60006002820490506001821680610fb657607f821691505b60208210811415610fca57610fc9611048565b5b50919050565b6000610fdb82610f52565b91507fffffffffffffffffffffffffffffffffffffffffffffffffffffffffffffffff82141561100e5761100d611019565b5b600182019050919050565b7f4e487b7100000000000000000000000000000000000000000000000000000000600052601160045260246000fd5b7f4e487b7100000000000000000000000000000000000000000000000000000000600052602260045260246000fd5b7f4e487b7100000000000000000000000000000000000000000000000000000000600052604160045260246000fd5b6000601f19601f830116905091905056fea2646970667358221220383c73cbd74a05b2486c32ecda86e2ffbaa7b2497775edfe5e5e2aa2d54c541464736f6c63430008000033",
  "linkReferences": {},
  "deployedLinkReferences": {}
}