{
    "_format": "hh-sol-artifact-1",
    "contractName": "WavePortal",
    "sourceName": "contracts/WavePortal.sol",
    "abi": [
        {
            "inputs": [],
            "stateMutability": "nonpayable",
            "type": "constructor"
        },
        {
            "anonymous": false,
            "inputs": [
                {
                    "indexed": true,
                    "internalType": "address",
                    "name": "from",
                    "type": "address"
                },
                {
                    "indexed": false,
                    "internalType": "uint256",
                    "name": "timestamp",
                    "type": "uint256"
                },
                {
                    "indexed": false,
                    "internalType": "string",
                    "name": "message",
                    "type": "string"
                }
            ],
            "name": "NewWave",
            "type": "event"
        },
        {
            "inputs": [],
            "name": "getAllWaves",
            "outputs": [
                {
                    "components": [
                        {
                            "internalType": "address",
                            "name": "waver",
                            "type": "address"
                        },
                        {
                            "internalType": "string",
                            "name": "message",
                            "type": "string"
                        },
                        {
                            "internalType": "uint256",
                            "name": "timestamp",
                            "type": "uint256"
                        }
                    ],
                    "internalType": "struct WavePortal.Wave[]",
                    "name": "",
                    "type": "tuple[]"
                }
            ],
            "stateMutability": "view",
            "type": "function"
        },
        {
            "inputs": [],
            "name": "getTotalWaves",
            "outputs": [
                {
                    "internalType": "uint256",
                    "name": "",
                    "type": "uint256"
                }
            ],
            "stateMutability": "view",
            "type": "function"
        },
        {
            "inputs": [],
            "name": "getWaves",
            "outputs": [
                {
                    "internalType": "uint256",
                    "name": "",
                    "type": "uint256"
                }
            ],
            "stateMutability": "view",
            "type": "function"
        },
        {
            "inputs": [
                {
                    "internalType": "string",
                    "name": "_message",
                    "type": "string"
                }
            ],
            "name": "wave",
            "outputs": [],
            "stateMutability": "nonpayable",
            "type": "function"
        }
    ],
    "bytecode": "0x60806040523480156200001157600080fd5b506200005d6040518060400160405280601e81526020017f536d61727420436f6e747261637420666f72205761766520506f7274616c00008152506200006360201b620004f81760201c565b620001f7565b62000103816040516024016200007a919062000170565b6040516020818303038152906040527f41304fac000000000000000000000000000000000000000000000000000000007bffffffffffffffffffffffffffffffffffffffffffffffffffffffff19166020820180517bffffffffffffffffffffffffffffffffffffffffffffffffffffffff83818316178352505050506200010660201b60201c565b50565b60008151905060006a636f6e736f6c652e6c6f679050602083016000808483855afa5050505050565b60006200013c8262000194565b6200014881856200019f565b93506200015a818560208601620001b0565b6200016581620001e6565b840191505092915050565b600060208201905081810360008301526200018c81846200012f565b905092915050565b600081519050919050565b600082825260208201905092915050565b60005b83811015620001d0578082015181840152602081019050620001b3565b83811115620001e0576000848401525b50505050565b6000601f19601f8301169050919050565b610eab80620002076000396000f3fe608060405234801561001057600080fd5b506004361061004c5760003560e01c8063449d46c0146100515780639a2cdc081461006d578063a9d42f7e1461008b578063bd43a908146100a9575b600080fd5b61006b600480360381019061006691906108a2565b6100c7565b005b61007561029a565b6040516100829190610b76565b60405180910390f35b6100936102e5565b6040516100a09190610b76565b60405180910390f35b6100b16103a7565b6040516100be9190610abd565b60405180910390f35b60016000808282546100d99190610c88565b925050819055506000339050600160008273ffffffffffffffffffffffffffffffffffffffff1673ffffffffffffffffffffffffffffffffffffffff168152602001908152602001600020600081548092919061013590610d8e565b919050555061017a6040518060400160405280601c81526020017f2573206861732077617665642077697468206d657373616765202573000000008152508284610591565b600260405180606001604052808373ffffffffffffffffffffffffffffffffffffffff16815260200184815260200142815250908060018154018082558091505060019003906000526020600020906003020160009091909190915060008201518160000160006101000a81548173ffffffffffffffffffffffffffffffffffffffff021916908373ffffffffffffffffffffffffffffffffffffffff1602179055506020820151816001019080519060200190610239929190610797565b506040820151816002015550508073ffffffffffffffffffffffffffffffffffffffff167f5f7e16dc676677766a70e9c5628aa6c54ddb8b6e5188e2ae1e1f17f1ffbea716428460405161028e929190610b91565b60405180910390a25050565b60006102dd6040518060400160405280601781526020017f5765206861766520256420746f74616c20776176657321000000000000000000815250600054610630565b600054905090565b600080600160003373ffffffffffffffffffffffffffffffffffffffff1673ffffffffffffffffffffffffffffffffffffffff1681526020019081526020016000205490506103a0336040518060400160405280600a81526020017f206861732073656e742000000000000000000000000000000000000000000000815250836040518060400160405280600781526020017f20776176657321000000000000000000000000000000000000000000000000008152506106cc565b8091505090565b60606002805480602002602001604051908101604052809291908181526020016000905b828210156104ef57838290600052602060002090600302016040518060600160405290816000820160009054906101000a900473ffffffffffffffffffffffffffffffffffffffff1673ffffffffffffffffffffffffffffffffffffffff1673ffffffffffffffffffffffffffffffffffffffff16815260200160018201805461045490610d5c565b80601f016020809104026020016040519081016040528092919081815260200182805461048090610d5c565b80156104cd5780601f106104a2576101008083540402835291602001916104cd565b820191906000526020600020905b8154815290600101906020018083116104b057829003601f168201915b50505050508152602001600282015481525050815260200190600101906103cb565b50505050905090565b61058e8160405160240161050c9190610adf565b6040516020818303038152906040527f41304fac000000000000000000000000000000000000000000000000000000007bffffffffffffffffffffffffffffffffffffffffffffffffffffffff19166020820180517bffffffffffffffffffffffffffffffffffffffffffffffffffffffff838183161783525050505061076e565b50565b61062b8383836040516024016105a993929190610b01565b6040516020818303038152906040527fe0e9ad4f000000000000000000000000000000000000000000000000000000007bffffffffffffffffffffffffffffffffffffffffffffffffffffffff19166020820180517bffffffffffffffffffffffffffffffffffffffffffffffffffffffff838183161783525050505061076e565b505050565b6106c88282604051602401610646929190610b46565b6040516020818303038152906040527f9710a9d0000000000000000000000000000000000000000000000000000000007bffffffffffffffffffffffffffffffffffffffffffffffffffffffff19166020820180517bffffffffffffffffffffffffffffffffffffffffffffffffffffffff838183161783525050505061076e565b5050565b610768848484846040516024016106e69493929190610a6a565b6040516020818303038152906040527f5d1365c9000000000000000000000000000000000000000000000000000000007bffffffffffffffffffffffffffffffffffffffffffffffffffffffff19166020820180517bffffffffffffffffffffffffffffffffffffffffffffffffffffffff838183161783525050505061076e565b50505050565b60008151905060006a636f6e736f6c652e6c6f679050602083016000808483855afa5050505050565b8280546107a390610d5c565b90600052602060002090601f0160209004810192826107c5576000855561080c565b82601f106107de57805160ff191683800117855561080c565b8280016001018555821561080c579182015b8281111561080b5782518255916020019190600101906107f0565b5b509050610819919061081d565b5090565b5b8082111561083657600081600090555060010161081e565b5090565b600061084d61084884610bf2565b610bc1565b90508281526020810184848401111561086557600080fd5b610870848285610d1a565b509392505050565b600082601f83011261088957600080fd5b813561089984826020860161083a565b91505092915050565b6000602082840312156108b457600080fd5b600082013567ffffffffffffffff8111156108ce57600080fd5b6108da84828501610878565b91505092915050565b60006108ef83836109fc565b905092915050565b61090081610cde565b82525050565b61090f81610cde565b82525050565b600061092082610c32565b61092a8185610c55565b93508360208202850161093c85610c22565b8060005b85811015610978578484038952815161095985826108e3565b945061096483610c48565b925060208a01995050600181019050610940565b50829750879550505050505092915050565b600061099582610c3d565b61099f8185610c66565b93506109af818560208601610d29565b6109b881610e64565b840191505092915050565b60006109ce82610c3d565b6109d88185610c77565b93506109e8818560208601610d29565b6109f181610e64565b840191505092915050565b6000606083016000830151610a1460008601826108f7565b5060208301518482036020860152610a2c828261098a565b9150506040830151610a416040860182610a4c565b508091505092915050565b610a5581610d10565b82525050565b610a6481610d10565b82525050565b6000608082019050610a7f6000830187610906565b8181036020830152610a9181866109c3565b9050610aa06040830185610a5b565b8181036060830152610ab281846109c3565b905095945050505050565b60006020820190508181036000830152610ad78184610915565b905092915050565b60006020820190508181036000830152610af981846109c3565b905092915050565b60006060820190508181036000830152610b1b81866109c3565b9050610b2a6020830185610906565b8181036040830152610b3c81846109c3565b9050949350505050565b60006040820190508181036000830152610b6081856109c3565b9050610b6f6020830184610a5b565b9392505050565b6000602082019050610b8b6000830184610a5b565b92915050565b6000604082019050610ba66000830185610a5b565b8181036020830152610bb881846109c3565b90509392505050565b6000604051905081810181811067ffffffffffffffff82111715610be857610be7610e35565b5b8060405250919050565b600067ffffffffffffffff821115610c0d57610c0c610e35565b5b601f19601f8301169050602081019050919050565b6000819050602082019050919050565b600081519050919050565b600081519050919050565b6000602082019050919050565b600082825260208201905092915050565b600082825260208201905092915050565b600082825260208201905092915050565b6000610c9382610d10565b9150610c9e83610d10565b9250827fffffffffffffffffffffffffffffffffffffffffffffffffffffffffffffffff03821115610cd357610cd2610dd7565b5b828201905092915050565b6000610ce982610cf0565b9050919050565b600073ffffffffffffffffffffffffffffffffffffffff82169050919050565b6000819050919050565b82818337600083830152505050565b60005b83811015610d47578082015181840152602081019050610d2c565b83811115610d56576000848401525b50505050565b60006002820490506001821680610d7457607f821691505b60208210811415610d8857610d87610e06565b5b50919050565b6000610d9982610d10565b91507fffffffffffffffffffffffffffffffffffffffffffffffffffffffffffffffff821415610dcc57610dcb610dd7565b5b600182019050919050565b7f4e487b7100000000000000000000000000000000000000000000000000000000600052601160045260246000fd5b7f4e487b7100000000000000000000000000000000000000000000000000000000600052602260045260246000fd5b7f4e487b7100000000000000000000000000000000000000000000000000000000600052604160045260246000fd5b6000601f19601f830116905091905056fea264697066735822122058a46834171c8a6df034ce84f5d759de140e965d150b700a8f55ebc5d35675fc64736f6c63430008000033",
    "linkReferences": {},
    "deployedLinkReferences": {}
}